:100000000C946A040C9492040C9492040C94920440
:100010000C9492040C9492040C9492040C94920408
:100020000C9492040C9492040C9492040C949204F8
:100030000C9492040C9492040C9492040C949204E8
:100040000C9499130C9492040C9450110C949E11DE
:100050000C9492040C9492040C9492040C949204C8
:100060000C9492040C949204510C650C750C880C41
:10007000900CDE0CE70CF20CFA0C010D010D010DD9
:10008000010D010D010D010D010D010D010D010D00
:10009000010D010D010D010D010D010D010D010DF0
:1000A000010D010D010D010D510C5D0C650C750C60
:1000B000880C900CA30CAB0CB30C0608205F00005E
:1000C000000000000000002F0000000007000700F3
:1000D00000147F147F1400242A7F2A12002313089F
:1000E00064620036495522500000050300000000FC
:1000F0001C224100000041221C000014083E08148C
:100100000008083E0808000000A060000008080879
:100110000808000060600000002010080402003E93
:100120005149453E0000427F40000042615149462E
:10013000002141454B31001814127F10002745451E
:100140004539003C4A494930000171090503003630
:100150004949493600064949291E00003636000043
:100160000000563600000008142241000014141448
:100170001414000041221408000201510906003243
:100180004959513E007C1211127C007F4949493681
:10019000003E41414122007F4141221C007F4949EC
:1001A0004941007F09090901003E4149497A007F20
:1001B0000808087F0000417F4100002040413F01C6
:1001C000007F08142241007F40404040007F020C25
:1001D000027F007F0408107F003E4141413E007FC6
:1001E00009090906003E4151215E007F091929468F
:1001F0000046494949310001017F0101003F40406B
:10020000403F001F2040201F003F4038403F006318
:10021000140814630007087008070061514945433A
:1002200000007F414100AA55AA55AA55000041414E
:100230007F000004020102040040404040400000F2
:1002400003050000002054545478007F484444388B
:1002500000384444442000384444487F0038545413
:10026000541800087E0901020018A4A4A47C007F91
:10027000080404780000447D4000004080847D0034
:10028000007F102844000000417F4000007C0418DB
:100290000478007C0804047800384444443800FCA6
:1002A000242424180018242418FC007C08040408C2
:1002B00000485454542000043F444020003C404037
:1002C000207C001C2040201C003C4030403C00446E
:1002D00028102844001CA0A0A07C004464544C4476
:1002E0000000107C8200000000FF00000000827C03
:1002F00010000000060909060C102D0D00000080FA
:10030000808080808000000000000103030303035D
:1003100003010000000000000000000000000000D9
:100320000000000000C0C0000000000000000286C5
:100330008686868686020000000081C3C3C3C3C3CD
:10034000C381000000FC7A0606060606067AFC0059
:10035000007EBCC0C0C0C0C0C0BC7E0000000000A9
:10036000000000000078FC00000000000000000019
:10037000003C7E000000028686868686867AFC0027
:10038000007EBDC3C3C3C3C3C38100000000028697
:1003900086868686867AFC00000081C3C3C3C3C3F9
:1003A000C3BD7E0000FC7880808080808078FC0067
:1003B0000000010303030303033D7E0000FC7A8673
:1003C0008686868686020000000081C3C3C3C3C33D
:1003D000C3BD7E0000FC7A86868686868602000083
:1003E000007EBDC3C3C3C3C3C3BD7E0000000206FD
:1003F00006060606067AFC00000000000000000069
:10040000003C7E0000FC7A8686868686867AFC0022
:10041000007EBDC3C3C3C3C3C3BD7E0000FC7A86D8
:1004200086868686867AFC00000081C3C3C3C3C368
:10043000C3BD7E000E182D0D00000000000000005E
:100440000000000000000000103838383838383814
:100450003810000000000000000000000000000054
:10046000000000000000000000000000000000008C
:10047000000000000000000000000000000000007C
:1004800000000040E0E04000000000000000020624
:100490000E0E0E0E0E0E0602000000001038383848
:1004A0003838383838100000000080C0E0E0E0E064
:1004B000E0E0C080000000FCFAF60E0E0E0E0E0EFC
:1004C000F6FAFC0000EFC78300000000000083C7BD
:1004D000EF00007FBFDFE0E0E0E0E0E0DFBF7F00B3
:1004E00000000000000000000000F0F8FC00000028
:1004F000000000000000000083C7EF0000000000C3
:100500000000000000001F3F7F00000002060E0EEA
:100510000E0E0E0EF6FAFC0000E0D0B8383838386F
:1005200038383B170F00007FBFDFE0E0E0E0E0E09D
:10053000C0800000000002060E0E0E0E0E0EF6FA2F
:10054000FC0000001038383838383838BBD7EF0096
:10055000000080C0E0E0E0E0E0E0DFBF7F0000FC02
:10056000F8F0000000000000F0F8FC00000F173B5E
:10057000383838383838BBD7EF00000000000000AA
:10058000000000001F3F7F0000FCFAF60E0E0E0E6A
:100590000E0E06020000000F173B38383838383886
:1005A000B8D0E000000080C0E0E0E0E0E0E0DFBFC5
:1005B0007F0000FCFAF60E0E0E0E0E0E0602000074
:1005C00000EFD7BB383838383838B8D0E000007F73
:1005D000BFDFE0E0E0E0E0E0DFBF7F000000020618
:1005E0000E0E0E0E0E0EF6FAFC00000000000000CB
:1005F0000000000083C7EF000000000000000000C2
:1006000000001F3F7F0000FCFAF60E0E0E0E0E0ECD
:10061000F6FAFC0000EFD7BB383838383838BBD78B
:10062000EF00007FBFDFE0E0E0E0E0E0DFBF7F0061
:1006300000FCFAF60E0E0E0E0E0EF6FAFC00000F7F
:10064000173B383838383838BBD7EF00000080C047
:10065000E0E0E0E0E0E0DFBF7F000406205F0000B4
:100660000003A000C00C00F94F806BEB00988C8059
:1006700052A58003000001C88089C0005085002178
:10068000C200084000208200002000188C00FA2FD1
:10069000804BE0805A66808AA500E08F80EAAB003C
:1006A00072A9009A8C00FAAF804AA70001400009A5
:1006B000400021488051450089420042660072A6F0
:1006C000807A8780FAA500722500FA2700FAA880B0
:1006D000FA8800722B00F88F808BE8808BE800F896
:1006E0008D80F82080F90F80F9CF80722700FA847E
:1006F00000722740FA85804AA90083E800F02F00A5
:10070000E06E00F0EF00D88D80C0EC009AAC800362
:10071000E880C081808BE000420400082080020451
:1007200000312380F92300312480312F8031628011
:1007300023EA00255380F9038002E00006E000F878
:10074000428003E0007987803903803123007D23D4
:10075000003127C078840029400043E4007027005E
:1007600060660070670048C48074578059E6802333
:10077000E8800360008BE200610C000000000024B0
:100780000027002A0000000000250028002B0000A0
:1007900000000023002600290004040404040404CB
:1007A0000402020202020203030303030301020420
:1007B00008102040800102040810200102040810E3
:1007C00020000000070002010000030406000000F2
:1007D000000000000000407A10F35A00A0724E188A
:1007E000090010A5D4E80000E87648170000E40BE3
:1007F00054020000CA9A3B000000E1F505000080A9
:10080000969800000040420F000000A08601000002
:1008100000102700000000E8030000000064000052
:100820000000000A00000000000100000000002C91
:1008300076D888DC674F0823DFC1DFAE59E1B1B756
:1008400096E5E3E453C63AE651997696E8E6C28423
:1008500026EB898C9B62ED407C6FFCEFBC9C9F403B
:10086000F2BAA56FA5F490055A2AF75C936B6CF960
:10087000676DC11BFCE0E40D47FEF520E6B500D036
:10088000ED902E0300943577050080841E0800004B
:10089000204E0A000000C80C333333330F986E1219
:1008A000831141EF8D2114893BE65516CFFEE6DB1F
:1008B00018D1844B381BF77C1D901DA4BBE4242069
:1008C0003284725E228100C9F124ECA1E53D27004B
:1008D00015070A1311241FBECFEFD8E0DEBFCDBF2E
:1008E00011E0A0E0B1E0EAEBFDE202C005900D925C
:1008F000A838B107D9F714E0A8E8B1E001C01D920B
:10090000A83CB107E1F718E0C4EDD8E004C0229795
:10091000FE010E94A016C03DD107C9F70E946013D6
:100920000C94DB160C940000EF92FF920F931F9330
:10093000F22FF02E47FD02C0E4E001C0E4E1242FD5
:10094000332727FD309537FF03C0309521953F4F62
:100950004F2D512F0F2FEE2E0E94DB048F2D912F44
:100960001F910F91FF90EF900895FC018827992720
:10097000E89421912032E9F3293010F02E30C8F3A9
:100980002B3241F02D3239F4689404C00E94D30414
:10099000820F911D219120532A30C0F31EF49095AF
:1009A00081959F4F08957AE0979F902D879F802D86
:1009B000910D11240895A9E0B0E0E1EEF4E00C946B
:1009C000A8166A01122FA02EBE2C2BE3201718F4B4
:1009D0002CE3922E02C0902E9394AE014F5F5F4F96
:1009E00027E0092D0E943D06BC018981E82EFF24E5
:1009F000C70189709070019711F4ADE209C0B1FE92
:100A000002C0ABE205C0B0FC02C0A0E001C0A0E2A1
:100A1000E3FE3BC0AA2311F423E001C024E0211728
:100A200010F020E002C0121B212FEB2CB4FE02C0FC
:100A3000322F0AC0F601322F80E202C0819331507A
:100A40003323E1F7C20ED11CAA2319F0F601A193BA
:100A50006F01F6013196E2FE05C09EE4D6019C933B
:100A600081E404C09EE6D6019C9381E611968C93A6
:100A700091833296DF01832F90E202C09D938150D3
:100A80008823E1F7E30FF11D40C0E2FE42C0AA2334
:100A900011F423E001C024E0211710F020E002C08F
:100AA000121B212FEB2CB4FE02C0922F0AC0F601BC
:100AB000922F80E202C0819391509923E1F7C20EF8
:100AC000D11CAA2319F0F601A1936F01F60131960A
:100AD000E2FE08C089E4D6018C938EE411968C93D3
:100AE00086E407C089E6D6018C938EE611968C9336
:100AF00086E681833296DF01892F20E202C02D93A2
:100B000081508823E1F7E90FF11D10822EEF3FEFAE
:100B1000AFC0161617061CF041E050E003C0AB0151
:100B20004F5F5F4FAA2019F480E090E003C08A2D48
:100B300090E0019620E030E0AA2311F021E030E0BF
:100B4000240F351F280F391F812F90E028173907F0
:100B500014F020E002C0121B212F4B2D50E0CA01DF
:100B600080719070B4FC0DC0B3FC0BC0F601322F45
:100B700040E202C0419331503323E1F7C20ED11C51
:100B800001C0322FAA2319F0F601A1936F01892B1E
:100B900011F0132F0AC0F601132F80E302C08193D6
:100BA00011501123E1F7C30ED11C092D060FBA8095
:100BB00090E1892E912C8E209F20E4FE04C0F1E369
:100BC000BF1609F40150101614F001E003C00930FB
:100BD00008F008E09B0177FF02C020E030E0CB0185
:100BE0000196821B930BFE013196E80FF91F8EE2EE
:100BF000F82E3B01601A71088A2D90E04427552792
:100C0000481B590B8FEF2F3F380719F4D601FD927F
:100C10006D01621773072CF06216730614F480815D
:100C200001C080E32150304031962417350724F06D
:100C3000D6018D936D01E6CF2617370749F4B5E34A
:100C4000BB1528F0BB1621F48114910409F481E34B
:100C5000F6018193D601812F90E202C09C938150CE
:100C600011968823D9F7E10FF11D108220E030E0C2
:100C7000C9012996EEE00C94C416283008F027E04C
:100C80003327DA01990F311D87FD916000966105C8
:100C9000710539F432602E5F3D9330E32A95E1F718
:100CA00008959F3F30F080387105610509F03C5F81
:100CB0003C5F3D93913008F08068911DDF93CF93A6
:100CC0001F930F93FF92EF92192F987F9695E92F1C
:100CD00096959695E90FFF27E15DF74F9927332702
:100CE000EE24FF24A701E70105900894079428F457
:100CF000360FE71EF81E491F511D660F771F881F0C
:100D0000991F0694A1F70590079428F4E70EF81EA2
:100D1000491F561FC11D770F881F991F661F069414
:100D2000A1F70590079428F4F80E491F561FC71F16
:100D3000D11D880F991F661F771F0694A1F7059094
:100D4000079420F4490F561FC71FD81F990F661F1D
:100D5000771F881F0694A9F784911095177041F0AA
:100D6000D695C79557954795F794E7941A95C1F787
:100D7000E5EDF7E0689415901591359165919591A1
:100D800005907FE27395E118F10A430B560BC90BEE
:100D9000D009C0F7E10CF11E431F561FC91FD01D1B
:100DA0007EF4703311F48A95E6CFE894015030F068
:100DB000080F0AF40027021708F4202F2395022FAA
:100DC0007A3328F079E37D932A95E9F710C07D9373
:100DD0002A9589F6069497956795379517951794F0
:100DE000E118F10A430B560BC90BD00998F0239573
:100DF0007E9173957A3308F070E37C932013B8F7F3
:100E00007E9170617D9330F0839571E37D9370E303
:100E10002A95E1F71124EF90FF900F911F91CF9148
:100E2000DF91992787FD90950895EF92FF920F9398
:100E30001F9388E891E00E942A088BEF91E068E018
:100E400070E049E050E02AE030E00BE010E0ECE038
:100E5000EE2EF12C0E94A5101F910F91FF90EF90A4
:100E60000895DF92EF92FF920F931F93DF93CF933A
:100E7000CDB7DEB764970FB6F894DEBF0FBECDBF17
:100E80000E94E1137B018C01DD2413C08DE994E005
:100E90000E949112682F88E891E00E940D0D88232E
:100EA00011F0DD24D3948DE994E00E946012892B27
:100EB00069F70E94E1136E197F09800B910B685E40
:100EC00073408040904078F3DD2009F489C088E8C1
:100ED00091E0BE01675F7F4FAE01435F5F4F9E01B0
:100EE0002F5E3F4F0E94B50A8BEF91E060E071E00A
:100EF00041E050E020E030E00E94BF0F6D857E852C
:100F00008F85988943E026E00BE014E00E9494046A
:100F10008BEF91E0B80148E250E020E030E00E9421
:100F2000BF0F8BEF91E06AE071E041E050E02AE012
:100F300030E00E94BF0F69857A858B859C8543E0F0
:100F400026E00E9494048BEF91E0B80148E250E063
:100F50002AE030E00E94BF0F8BEF91E063E171E087
:100F600041E050E024E130E00E94BF0F88E891E0CA
:100F70000E94430A43E022E00E9494048BEF91E038
:100F8000B8014DE250E024E130E00E94BF0F8BEF4A
:100F900091E06EE171E041E050E02EE130E00E942E
:100FA000BF0F88E891E00E94FD0943E022E00E9423
:100FB00094048BEF91E0B8014EE250E02EE130E076
:100FC0000E94BF0F8BEF91E06AE271E041E050E0D8
:100FD00028E230E00E94BF0F8BEF91E00E94D80D15
:100FE00088E891E0BE016B5F7F4FAE014F5F5F4FBE
:100FF0009E012D5F3F4F0E94770868EE73E080E00E
:1010000090E00E94151464960FB6F894DEBF0FBEF0
:10101000CDBFCF91DF911F910F91FF90EF90DF90A7
:1010200008950F931F930BEF11E0C80166E470E081
:101030000E942D10C8016AE576E00E94A30F8DE999
:1010400094E040EC52E160E070E00E94D9111F9101
:101050000F910895FC012FEF3FEF4FEF5FEF2083DB
:1010600031834283538310861186128613868FEF55
:1010700099ECAAE9BBE3808B918BA28BB38B808F19
:10108000918FA28FB38F80A391A3A2A3B3A380A7B4
:1010900091A7A2A7B3A780AB91ABA2ABB3AB20AF94
:1010A00031AF42AF53AFE05CFF4F8FEF90E09183E1
:1010B0008083349620833183428353833896208300
:1010C000318342835383389611921082709682E066
:1010D0008193119211921192119211921192119287
:1010E0001192119211821082799710820895CF93F4
:1010F000DF93FC01EB016115710561F0E759FF4FCA
:1011000080819181A281B381E956F04088839983DF
:10111000AA83BB834115510549F0E359FF4F8081F4
:101120009181ED56F040DA018D939C9321153105A4
:1011300039F0E159FF4F80819181F90191838083DA
:10114000DF91CF910895262F862F8154863030F479
:10115000772767FD7095675370400BC0772767FD51
:1011600070952156263018F46755704002C06053C0
:101170007040CB010895EF92FF920F931F93CF938E
:10118000DF939C01EE24FC01EA5AFF4F80818D32EF
:1011900031F4EE24E394E901C95ADF4F01C0EF01B5
:1011A0008E0120E030E040E050E018C0CA01B901F3
:1011B0002AE030E040E050E00E9436162F2D332721
:1011C00027FD3095432F532F20533040404050404F
:1011D000260F371F481F591F0F5F1F4FF801F08060
:1011E0008F2D80538A3010F3CA01B90124E630E014
:1011F00040E050E00E9436169B01AC0101C02196F0
:101200009881892F80538A30D0F39E3229F59981B5
:10121000892F80538A3000F58AE09802C00111249A
:10122000805E9140AA2797FDA095BA2F280F391FFD
:101230004A1F5B1F9A81892F80538A3068F4892F57
:10124000992787FD9095C097AA2797FDA095BA2F5B
:10125000280F391F4A1F5B1FEE2039F0509540952B
:10126000309521953F4F4F4F5F4FB901CA01DF9134
:10127000CF911F910F91FF90EF9008954F925F9241
:101280006F927F928F929F92AF92BF92CF92DF9296
:10129000EF92FF920F931F93CF93DF9326E5822E59
:1012A000912C880E991EE40120E030E040E050E0EF
:1012B00017C0CA01B9012AE030E040E050E00E94C6
:1012C0003616212F332727FD3095432F532F2053D8
:1012D000304040405040260F371F481F591F21966D
:1012E0001881812F80538A3020F3722E632E542E62
:1012F000452EB901CA0124E630E040E050E00E94EA
:10130000681620EA36E841E050E00E9436165B019C
:101310006C0103C00894811C911CD4019C91892FFD
:1013200080538A30B8F39E3269F580E1E82E87E277
:10133000F82E012D112D1DC0332727FD3095205388
:101340003040442737FD4095542FC801B7010E9413
:101350003616A60EB71EC81ED91EC801B7012AE050
:1013600030E040E050E00E946816C901DA017C01DB
:101370008D010894811C911CF4012081822F8053DF
:101380008A30D0F283E090E0A0E0B0E0A80EB91E71
:10139000CA1EDB1EC601B50126E030E040E050E089
:1013A0000E94681679018A01672D762D852D942D6E
:1013B00024E630E040E050E00E946816CA01B9011E
:1013C00020E432E44FE050E00E943616E60EF71EAD
:1013D000081F191FB701C801DF91CF911F910F910D
:1013E000FF90EF90DF90CF90BF90AF909F908F9045
:1013F0007F906F905F904F900895FC0160A171A164
:1014000082A193A16F3FF9EC7F07FAE98F07FBE315
:101410009F0729F4E0E074E284E769E40AC00E94CF
:10142000231520E030E048EC52E40E94B914E62F86
:10143000692F2E2F372F482F562FB901CA01089533
:10144000FC0160A571A582A593A56F3FF9EC7F070C
:10145000FAE98F07FBE39F0729F4E0E070E080E8FA
:101460006FEB0AC00E94211520E030E048EC52E406
:101470000E94B914E62F692F2E2F372F482F562F91
:10148000B901CA010895EF92FF920F931F930E9432
:10149000200A7B018C0120E030E040E85FEB0E94F5
:1014A000B514882329F4E0E070E080E86FEB0AC00F
:1014B000C801B70126E53EE04DEE5FE30E94D3157B
:1014C000E62F692F2E2F372F482F562FB901CA012B
:1014D0001F910F91FF90EF9008950F931F93CF935B
:1014E000DF93FC01EB0189016115710541F08089F1
:1014F0009189A289B38988839983AA83BB83411583
:10150000510549F0808D918DA28DB38DEA018883BC
:101510009983AA83BB830115110511F1EF01C45B07
:10152000DF4F88819981AA81BB818F5F9F4FAF4F29
:10153000BF4F29F42FEF3FEF4FEF5FEF0CC00E943A
:10154000E1139B01AC0188819981AA81BB81281B91
:10155000390B4A0B5B0BE801288339834A835B8391
:10156000DF91CF911F910F910895AF92BF92CF92CB
:10157000DF92EF92FF920F931F93DF93CF93CDB73C
:10158000DEB728970FB6F894DEBF0FBECDBF6B0154
:101590005A01BE016F5F7F4FAE014B5F5F4F0E94EC
:1015A0006D0AE980FA800B811C818FEFE81689ECC7
:1015B000F8068AE908078BE3180729F4E0E070E0F1
:1015C0008AE764E40CC0C801B7010E94231520E03B
:1015D00034E244E759E40E94B914E62F692F2E2F14
:1015E000372F482F562FC901DA01F60180839183E6
:1015F000A283B383FFEFEF16F9ECFF06FAE90F07BA
:10160000FBE31F0729F4E0E070E08AE764E40EC022
:101610006D817E818F8198850E94231520E034E2C0
:1016200044E759E40E94B914E62F692F2E2F372F73
:10163000482F562FC901DA01F50180839183A283D7
:10164000B38328960FB6F894DEBF0FBECDBFCF91FF
:10165000DF911F910F91FF90EF90DF90CF90BF909F
:10166000AF900895FF920F931F93CF93DF93EC01F8
:10167000CB5ADF4F8881C555D040882309F4BFC0BD
:10168000FE01EA5AFF4FCE0160810E94A3088C013F
:10169000CE01C95ADF4F68810E94A30854E0000FB1
:1016A000111F5A95E1F7800F23979881C455D040B8
:1016B000891709F09BC0C859DF4F8881C856D040B0
:1016C000882309F49EC1FE01E359FF4F8081918177
:1016D000019691838083FE01EC5BFF4FC85BDF4F77
:1016E00088819981AA81BB81C854D040808391832D
:1016F000A283B383FE01E45BFF4FC05BDF4F8881B1
:101700009981AA81BB8180839183A283B3836596EB
:101710008881C556D0408823A1F1813009F064C08A
:101720008C819D81AE81BF8188839983AA83BB838D
:101730008C859D85AE85BF8588879987AA87BB875D
:101740008C899D89AE89BF89888B998BAA8BBB8B2D
:101750008C8D9D8DAE8DBF8D888F998FAA8FBB8FFD
:101760008CA59DA5AEA5BFA588A799A7AAA7BBA72D
:101770008CA99DA9AEA9BFA988AB99ABAAABBBABFD
:1017800033C08CA19DA1AEA1BFA188A399A3AAA398
:10179000BBA38C819D81AE81BF8188839983AA83FD
:1017A000BB838C899D89AE89BF89888B998BAA8BD5
:1017B000BB8B8C8D9D8DAE8DBF8D888F998FAA8FA1
:1017C000BB8FFE01E05CFF4FCE5BDF4F88819981CC
:1017D000C254D040918380838CAD9DADAEADBFAD82
:1017E00088AF99AFAAAFBBAF81E00CC1FE01E15950
:1017F000FF4F8081918101969183808302C1CA59F4
:10180000DF4F8881C656D040882321F59E012A5A91
:101810003F4FD901E7E3F1E002C0119631969C9168
:10182000992339F080819817C1F3D901EDE3F1E0F4
:1018300006C0CB59DF4F81E0EEC0119631969C91E6
:10184000992321F080819817C1F3E2C0CB59DF4F73
:101850001882D7C0CB59DF4F3881C556D0403230BF
:1018600009F4CFC0CA5ADF4F2881C655D040222381
:1018700009F4C7C0E32FF0E045E0EE0FFF1F4A95E3
:10188000E1F790E0E82BF92B3197E932F10508F008
:10189000B8C0EC5CFF4FEE0FFF1F0590F491E02DF8
:1018A0000994CE010E94BB086C837D838E839F8345
:1018B0000E94E113C85BDF4F13C0FE01E859FF4FE0
:1018C0001082213409F09DC07FC0CE010E943E09E4
:1018D0006C8B7D8B8E8B9F8B0E94E113C05BDF4FE7
:1018E000688379838A839B838CC0233509F089C000
:1018F0008C899D89AE89BF89B095A0959095819579
:101900009F4FAF4FBF4F8C8B9D8BAE8BBF8B79C0E2
:10191000CE010E943E096C8F7D8F8E8F9F8F71C08C
:10192000273509F06EC08C8D9D8DAE8DBF8DB09525
:10193000A095909581959F4FAF4FBF4F8C8F9D8FF6
:10194000AE8FBF8F5EC0CE010E94BB086CA77DA783
:101950008EA79FA756C0CE010E94BB086CAB7DAB83
:101960008EAB9FAB4EC08E010A5A1F4F20E030E075
:1019700040E050E018C0CA01B9012AE030E040E080
:1019800050E00E9436162F2D332727FD3095432F28
:10199000532F2053304040405040260F371F481FE0
:1019A000591F0F5F1F4FF801F0808F2D80538A3031
:1019B00010F32C873D874E875F8723C0FE01E859CF
:1019C000FF4F10822133ECF081E080831AC0CE01FA
:1019D0008A5A9F4F0E94B504FE01EE5BFF4F808341
:1019E00011820FC0CE010E94BB086CAF7DAF8EAFDD
:1019F0009FAF07C0CE010E94BB086CA37DA38EA33E
:101A00009FA380E0DF91CF911F910F91FF900895E8
:101A1000CB59DF4F82E08883F4CF1F93CF93DF93BE
:101A2000EC01162FFC01E759FF4F80819181A281C3
:101A3000B3810196A11DB11D80839183A283B383DD
:101A40006432A1F1DE01A959BF4F65322CF46A302E
:101A500069F06D30C9F50AC06A3241F06C32A1F507
:101A6000FE01EC5AFF4F8081862780838C918F3056
:101A700010F090E00AC0FE01E80FF11DEA5AFF4F96
:101A80001082CE010E94320B982FFE01EA59FF4FBF
:101A900080818F5F8083C959DF4F1882FE01729762
:101AA00010821A3251F581E0808327C0C959DF4F77
:101AB00018821A9262971882619682E088836097F2
:101AC00018826396188218C08C918E3040F4FE0103
:101AD000E80FF11DEA5AFF4F10838F5F8C93CB5AAA
:101AE000DF4F8881C555D040882331F4FE01EC5A80
:101AF000FF4F80818127808390E0892FDF91CF91F4
:101B00001F910895DC011896ED91FC911997908131
:101B10001E968C911E978095892380831496ED9153
:101B2000FC911597442339F490811C968C911C9755
:101B30008095892305C080811C969C911C97892BD8
:101B4000808320E01296ED91FC91139767FF06C009
:101B500080811B969C911B97892B06C090811B96B8
:101B60008C911B97809589238083ED91FC9111972F
:101B700090811A968C911A97809589238083000012
:101B8000ED91FC91119780811A969C911A97892B5F
:101B900080832F5F283011F0660FD4CF1896ED9117
:101BA000FC91199780811E969C91892B80830895C2
:101BB000EF92FF920F931F93CF93DF938C0160E41A
:101BC00040E00E94820DC80160E840E00E94820D62
:101BD000E80188EFE82E81E0F82EE00EF11EC80142
:101BE000688D41E00E94820D2196CE15DF05B9F780
:101BF000DF91CF911F910F91FF90EF900895DC013D
:101C00006435710510F540335105F8F49A0193E0FD
:101C1000369527959A95E1F784E590E0289FF001A5
:101C2000299FF00D389FF00D1124E60FF71FEA0FE2
:101C3000FB1F4770507081E090E002C0880F991F31
:101C40004A95E2F7208D282B208F0895DC0164351A
:101C5000710518F54033510500F59A01E3E036951A
:101C60002795EA95E1F784E590E0289FF001299F08
:101C7000F00D389FF00D1124E60FF71FEA0FFB1F40
:101C80004770507081E090E002C0880F991F4A951C
:101C9000E2F78095208D2823208F08952F923F9280
:101CA0004F925F926F927F928F929F92AF92BF926C
:101CB000CF92DF92EF92FF920F931F93DF93CF9318
:101CC00000D000D0CDB7DEB79C838B8349835A8385
:101CD000322E232EDC0154962C915497422F50E043
:101CE000CA01877090705396EC91539770E05596A7
:101CF0003C91892B09F088C02695269526952E9F24
:101D0000C0011124631B7109869F3001879F700CED
:101D1000969F700C1124E4E0F0E06E0E7F1E232DE0
:101D2000322DC9014C01AA24BB245BC000E010E0A5
:101D3000AB81BC8153968C91539790E0FC01AE9E91
:101D4000C001AF9E900DBE9E900D1124860D971D73
:101D50008C0D9D1D5196ED91FC915297E80FF91F46
:101D6000E4918E2F90E0002E02C0959587950A94FD
:101D7000E2F757969C91579780FF07C0A801480D3E
:101D8000591D992339F4CD010DC0A801480D591DE5
:101D9000992331F48B819C81B7010E94260E05C0E6
:101DA0008B819C81B7010E94FF0D0F5F1F4F083090
:101DB000110509F0BDCF0894C11CD11C0894E11C89
:101DC000F11CAB81BC8153968C9190E0C816D9066A
:101DD0000CF4ACCF0894A11CB11CE8E0F0E08E0E2E
:101DE0009F1EAB81BC8154968C9186958695869575
:101DF00090E0A816B9060CF08FC089819A819C01E9
:101E00007901CC24DD24DDCF631B71098E2F90E096
:101E1000FC01E49FC001E59F900DF49F900D1124FB
:101E200013E0959587951A95E1F7689F5001699F92
:101E3000B00C789FB00C112424E030E0A20EB31E49
:101E4000AB81BC815196ED91FC915297EA0DFB1D3F
:101E5000E4914E2E552429813A81C9017C01B7E0D5
:101E6000CB2ED12C6624772448C0C2010C2C02C092
:101E7000959587950A94E2F7EB81FC81978980FF1D
:101E800004C0992321F4CF010BC0992339F48B812D
:101E90009C81B701A8010E94260E06C08B819C81FF
:101EA000B701A8010E94FF0D0894C108D108D7FE10
:101EB00011C00894A11CB11CAB81BC815196ED915D
:101EC000FC915297EA0DFB1DE4914E2E5524A7E09C
:101ED000CA2ED12C0894811C911C0F5F1F4FEB81DF
:101EE000FC81848990E0881699060CF4BECF089492
:101EF000611C711C0894E11CF11CAB81BC815396E0
:101F00008C9190E0681679063CF4832D922D9C010B
:101F1000890188249924E3CF0F900F900F900F90A0
:101F2000CF91DF911F910F91FF90EF90DF90CF90B5
:101F3000BF90AF909F908F907F906F905F904F90E9
:101F40003F902F900895DC01FB0152967C936E9395
:101F50005197849153968C935397319684915496CC
:101F60008C9354973196849155968C9355973196CE
:101F7000E4915696EC93569757961C9208958F923B
:101F80009F92AF92BF92CF92DF92EF92FF920F9308
:101F90001F93CF93DF936C015B01EA014901DB01E1
:101FA0000D900020E9F77D010894E108F108E61A98
:101FB000F70AB7E24F305B0779F4FC01838990E0C0
:101FC0009C012E9DC0012F9D900D3E9D900D1124D2
:101FD000C4E5D0E0C81BD90B37E2CE30D307A1F45B
:101FE000D60153968C9190E08E9D90018F9D300D7F
:101FF0009E9D300D112484E590E0821B930B62E0DE
:1020000070E00E945516EB0100E010E016C0F501EB
:1020100061915F01D60153968C9190E0089FA001D9
:10202000099F500D189F500D11244C0F5D1FC601C4
:1020300094010E944E0E0F5F1F4F0E151F053CF3BB
:10204000DF91CF911F910F91FF90EF90DF90CF9094
:10205000BF90AF909F908F9008950F931F93CF9351
:10206000DF93EC018B01603871051CF00FE710E085
:1020700004C077FF02C000E010E0EC81FD818081A8
:102080009C85892B8083EA81FB8180819B85892BBC
:102090008083E881F98180819A85892B8083E88516
:1020A000F98580819E85892B8083EE81FF819081D7
:1020B0008D858095892380836AE070E080E090E0E0
:1020C0000E941514EE81FF8180819D85892B80837C
:1020D000CE0161E240E00E94820D602F6068CE0177
:1020E00040E00E94820DCE0166E040E00E94820D39
:1020F000CE0163E140E00E94820DCE0160E240E04B
:102100000E94820DCE0160E440E00E94820DCE016B
:1021100060E840E00E94820DCE016CE040E00E9449
:10212000820DFE0180E090E0108E0196319621E054
:10213000883F9207C9F7CE010E94D80D1A8A198AE2
:10214000DF91CF911F910F9108956F927F929F928F
:10215000AF92BF92CF92DF92EF92FF920F931F93B5
:10216000CF93DF936C01B62EA42E922EA62FB72FFD
:1021700049E9642E47E0742EF301EA0FFB1FE49156
:10218000F0E0EE0FFF1F65E877E0E60FF71F85919F
:102190009491F60191838083CDEAD7E0AC0FBD1F07
:1021A000FD018491F6018287AA2DB52FF301EA0F74
:1021B000FB1FE491F0E0EE0FFF1FE60FF71F859184
:1021C0009491F60193838283AC0FBD1FFD0154915E
:1021D000F6015387492D532FF301E40FF51FE491C6
:1021E000F0E0EE0FFF1FE60FF71F85919491F601C7
:1021F000958384834C0F5D1FFA013491F601348777
:102200009801F301E00FF11FE491F0E0EE0FFF1FE2
:10221000E60FF71F85919491F601978386832C0F23
:102220003D1FF9011491F60115876E0C7F1CF30117
:102230008491E82FF0E0EE0FFF1FE60FF71F859166
:102240009491F60191878087CE0DDF1DFE01849168
:10225000F60186878B2D61E00E9476148A2D61E05D
:102260000E947614892D61E00E947614802F61E02F
:102270000E9476148E2D61E00E947614F601B786D6
:10228000008BDF91CF911F910F91FF90EF90DF9026
:10229000CF90BF90AF909F907F906F9008950895DA
:1022A0001F920F920FB60F9211242F933F934F93CB
:1022B0008F939F93EF93FF938091C00082FD1DC089
:1022C0004091C60020915504309156042F5F3F4F36
:1022D0002F73307080915704909158042817390754
:1022E00071F0E0915504F0915604EB5EFB4F408392
:1022F000309356042093550402C08091C600FF918C
:10230000EF919F918F914F913F912F910F900FBE21
:102310000F901F901895E091A904F091AA04E05C39
:10232000FF4F8191919120813181821B930B8F739B
:102330009070892B11F00E944F1108951F920F92F7
:102340000FB60F9211242F933F938F939F93EF9388
:10235000FF932091990430919A0480919B0490916D
:102360009C042817390731F48091C1008F7D809338
:10237000C10014C0E0919B04F0919C04E75AFB4F0C
:10238000208180919B0490919C0401968F739070A2
:1023900090939C0480939B042093C600FF91EF913F
:1023A0009F918F913F912F910F900FBE0F901F9093
:1023B0001895AF92BF92DF92EF92FF920F931F9307
:1023C000CF93DF93EC017A018B01DD24403081EE65
:1023D000580780E0680780E0780711F0DD24D39487
:1023E00091E0A92EB12CEC89FD89DD2069F0C501B1
:1023F00008A002C0880F991F0A94E2F7808360E06A
:1024000079E08DE390E005C0108260E874E88EE129
:1024100090E0A80197010E9468162150304040408A
:102420005040569547953795279580E120303807DD
:1024300020F0DD2011F0DD24D6CFE889F989308342
:10244000EA89FB89208319A2EE89FF89408121E076
:1024500030E0C9010C8C02C0880F991F0A94E2F782
:10246000482B4083EE89FF894081C9010D8C02C051
:10247000880F991F0A94E2F7482B4083EE89FF8961
:102480004081C9010E8C02C0880F991F0A94E2F79F
:10249000482B4083EE89FF8980810F8C02C0220F78
:1024A000331F0A94E2F7209528232083DF91CF91F0
:1024B0001F910F91FF90EF90DF90BF90AF90089524
:1024C000DC011C96ED91FC911D97E05CFF4F219182
:1024D000319180819181281B390B2F733070C90194
:1024E0000895DC011C96ED91FC911D97E05CFF4F77
:1024F00020813181E054F040DF01AE5BBF4F8D9110
:102500009C9111972817390719F42FEF3FEF07C057
:102510008D919C91E80FF91F8081282F30E0C9012F
:102520000895DC011C96ED91FC911D97E05CFF4F36
:1025300020813181E054F040DF01AE5BBF4F8D91CF
:102540009C9111972817390719F42FEF3FEF10C00E
:102550008D919C911197E80FF91F20818D919C918D
:10256000119701968F73907011969C938E9330E023
:10257000C9010895DC0191968C919197882339F0D7
:102580005496ED91FC915597808186FFF9CF9196F5
:102590001C920895CF93DF93EC01EE85FF85E05CFC
:1025A000FF4F20813181E054F0402F5F3F4F2F7368
:1025B0003070DF01AE5BBF4F8D919C911197281752
:1025C0003907D1F3E05CFF4F80819181E054F04006
:1025D000E80FF91F6083EE85FF85E05CFF4F3183D4
:1025E0002083EE89FF89208181E090E00F8C02C07A
:1025F000880F991F0A94E2F7282B208381E089A392
:10260000EC89FD8980818064808381E090E0DF91A6
:10261000CF9108951092A00410929F0488EE93E049
:10262000A0E0B0E08093A1049093A204A093A3043F
:10263000B093A4048BE791E090939E0480939D0453
:1026400085E194E09093AA048093A90489E594E03D
:102650009093AC048093AB0485EC90E09093AE042F
:102660008093AD0484EC90E09093B0048093AF0429
:1026700080EC90E09093B2048093B10481EC90E000
:102680009093B4048093B30482EC90E09093B604EA
:102690008093B50486EC90E09093B8048093B704DF
:1026A00084E08093B90483E08093BA0487E0809348
:1026B000BB0485E08093BC0481E08093BD04089551
:1026C000CF93DF930E943B140E941108CBE8D1E125
:1026D0000E9431072097E1F30E948B11F9CFCF922E
:1026E000DF92EF92FF920F931F93CF93DF937C01C2
:1026F0006B018A01C0E0D0E00FC0D6016D916D0181
:10270000D701ED91FC910190F081E02DC701099571
:10271000C80FD91F015010400115110571F7CE01E6
:10272000DF91CF911F910F91FF90EF90DF90CF90AD
:1027300008951F920F920FB60F9211242F933F937B
:102740008F939F93AF93BF938091C3049091C404E0
:10275000A091C504B091C6043091C7040196A11D93
:10276000B11D232F2D5F2D3720F02D570196A11D70
:10277000B11D2093C7048093C3049093C404A09315
:10278000C504B093C6048091BF049091C004A09189
:10279000C104B091C2040196A11DB11D8093BF0474
:1027A0009093C004A093C104B093C204BF91AF91B1
:1027B0009F918F913F912F910F900FBE0F901F907F
:1027C00018958FB7F8942091C3043091C4044091B8
:1027D000C5045091C6048FBFB901CA0108959FB7BF
:1027E000F8942091BF043091C0044091C1045091ED
:1027F000C20486B5A89B06C08F3F21F02F5F3F4FD4
:102800004F4F5F4F9FBF542F432F322F2227280F48
:10281000311D411D511D82E0220F331F441F551FE2
:102820008A95D1F7B901CA010895EF92FF920F93EB
:102830001F93CF93DF937B018C010E94EF13EB0179
:102840000EC00E94EF136C1B7D0B685E7340C8F3D3
:102850000894E108F10801091109C851DC4FE1149D
:10286000F1040105110569F7DF91CF911F910F91D7
:10287000FF90EF900895789484B5826084BD84B50C
:10288000816084BD85B5826085BD85B5816085BD6B
:10289000EEE6F0E0808181608083E1E8F0E0108284
:1028A000808182608083808181608083E0E8F0E0C5
:1028B000808181608083E1EBF0E0808184608083AF
:1028C000E0EBF0E0808181608083EAE7F0E08081E6
:1028D0008460808380818260808380818160808346
:1028E0008081806880831092C1000895CF93DF9328
:1028F000482F50E0CA018355984FFC013491475648
:10290000584FFA018491882369F190E0880F991F4C
:10291000FC01E558F84FA591B491FC01EB57F84F35
:10292000C591D491662351F42FB7F8948C91932FCD
:10293000909589238C93888189230BC0623061F440
:102940002FB7F8948C91932F909589238C9388813D
:10295000832B88832FBF06C09FB7F8948C91832B5D
:102960008C939FBFDF91CF910895A8D008F481E0A8
:1029700008950CD0DEC0D6D040F0CDD030F021F498
:102980005F3F19F0BFC0511108C1C2C0E3D098F336
:102990009923C9F35523B1F3951B550BBB27AA27E0
:1029A00062177307840738F09F5F5F4F220F331F52
:1029B000441FAA1FA9F333D00E2E3AF0E0E830D01E
:1029C00091505040E695001CCAF729D0FE2F27D021
:1029D000660F771F881FBB1F261737074807AB07EF
:1029E000B0E809F0BB0B802DBF01FF2793585F4F64
:1029F0002AF09E3F510568F085C0CFC05F3FECF3E1
:102A0000983EDCF3869577956795B795F7959F5F28
:102A1000C9F7880F911D9695879597F90895E1E07C
:102A2000660F771F881FBB1F621773078407BA07DB
:102A300020F0621B730B840BBA0BEE1F88F7E09536
:102A40000895E89409C097FB3EF4909580957095A1
:102A500061957F4F8F4F9F4F9923A9F0F92F96E9EA
:102A6000BB279395F695879577956795B795F1115F
:102A7000F8CFFAF4BB0F11F460FF1BC06F5F7F4FFC
:102A80008F4F9F4F16C0882311F096E911C077230E
:102A900021F09EE8872F762F05C0662371F096E817
:102AA000862F70E060E02AF09A95660F771F881FE6
:102AB000DAF7880F9695879597F90895990F00088A
:102AC000550FAA0BE0E8FEEF16161706E807F90700
:102AD000C0F012161306E407F50798F0621B730B9B
:102AE000840B950B39F40A2661F0232B242B252B1C
:102AF00021F408950A2609F4A140A6958FEF811DBF
:102B0000811D089597F99F6780E870E060E008955F
:102B10009FEF80EC089500240A94161617061806F5
:102B20000906089500240A941216130614060506D1
:102B30000895092E0394000C11F4882352F0BB0F62
:102B400040F4BF2B11F460FF04C06F5F7F4F8F4FC5
:102B50009F4F089557FD9058440F551F59F05F3F00
:102B600071F04795880F97FB991F61F09F3F79F0AF
:102B700087950895121613061406551FF2CF469531
:102B8000F1DF08C0161617061806991FF1CF8695B3
:102B90007105610508940895E894BB276627772797
:102BA000CB0197F908950BD0C4CFB5DF28F0BADF79
:102BB00018F0952309F0A6CFABCF1124EECFCADFD2
:102BC000A0F3959FD1F3950F50E0551F629FF00140
:102BD000729FBB27F00DB11D639FAA27F00DB11D99
:102BE000AA1F649F6627B00DA11D661F829F222722
:102BF000B00DA11D621F739FB00DA11D621F839FA9
:102C0000A00D611D221F749F3327A00D611D231F7E
:102C1000849F600D211D822F762F6A2F11249F57CC
:102C200050408AF0E1F088234AF0EE0FFF1FBB1FEF
:102C3000661F771F881F91505040A9F79E3F51058E
:102C400070F060CFAACF5F3FECF3983EDCF386953F
:102C500077956795B795F795E7959F5FC1F7FE2B39
:102C6000880F911D9695879597F90895629FD001D9
:102C7000739FF001829FE00DF11D649FE00DF11D37
:102C8000929FF00D839FF00D749FF00D659FF00DE6
:102C90009927729FB00DE11DF91F639FB00DE11DD3
:102CA000F91FBD01CF011124089597FB092E0726B6
:102CB0000AD077FD04D02ED006D000201AF47095EB
:102CC00061957F4F0895F6F7909581959F4F0895F0
:102CD000A1E21A2EAA1BBB1BFD010DC0AA1FBB1F20
:102CE000EE1FFF1FA217B307E407F50720F0A21B92
:102CF000B30BE40BF50B661F771F881F991F1A94FF
:102D000069F760957095809590959B01AC01BD0128
:102D1000CF010895AA1BBB1B51E107C0AA1FBB1F0F
:102D2000A617B70710F0A61BB70B881F991F5A9557
:102D3000A9F780959095BC01CD010895EE0FFF1F76
:102D40000590F491E02D09942F923F924F925F925B
:102D50006F927F928F929F92AF92BF92CF92DF92AB
:102D6000EF92FF920F931F93CF93DF93CDB7DEB710
:102D7000CA1BDB0B0FB6F894DEBF0FBECDBF0994A4
:102D80002A88398848885F846E847D848C849B84FB
:102D9000AA84B984C884DF80EE80FD800C811B8109
:102DA000AA81B981CE0FD11D0FB6F894DEBF0FBE38
:0A2DB000CDBFED010895F894FFCFA8
:102DBA004C6F6E676974756465004C6174697475EB
:102DCA006465005370656564284B6D682900416C21
:102DDA00746974756465286D2900475053205265DB
:102DEA00636569766572004750524D430047504704
:102DFA004741004E004E4E45004E4500454E4500A7
:102E0A00450045534500534500535345005300536D
:102E1A00535700535700575357005700574E570000
:102E2A004E57004E4E570000000000CA126F136042
:082E3A001291127112BA12008C
:00000001FF
